:100000000C941D030C9445030C9445030C9424128A
:100010000C9424120C9424120C9445030C94450364
:100020000C9445030C9445030C9445030C94450330
:100030000C9445030C9445030C9445030C94450320
:100040000C94BF100C9445030C948D100C94671005
:100050000C9445030C9445030C9445030C94450300
:100060000C9409110C94450300000000003E5B4F06
:100070005B3E3E6B4F6B3E1C3E7C3E1C183C7E3C08
:10008000181C577D571C1C5E7F5E1C00183C180016
:10009000FFE7C3E7FF0018241800FFE7DBE7FF30A6
:1000A000483A060E2629792926407F050507407F14
:1000B00005253F5A3CE73C5A7F3E1C1C08081C1C87
:1000C0003E7F14227F22145F5F005F5F06097F017D
:1000D0007F006689956A606060606094A2FFA29468
:1000E00008047E040810207E201008082A1C080836
:1000F0001C2A08081E101010100C1E0C1E0C303884
:100100003E3830060E3E0E06000000000000005F84
:1001100000000007000700147F147F14242A7F2AA0
:100120001223130864623649562050000807030062
:10013000001C2241000041221C002A1C7F1C2A08AE
:10014000083E080800807030000808080808000011
:1001500060600020100804023E5149453E00427F85
:10016000400072494949462141494D331814127FD4
:100170001027454545393C4A494931412111090774
:100180003649494936464949291E000014000000F5
:1001900040340000000814224114141414140041C7
:1001A00022140802015909063E415D594E7C121184
:1001B000127C7F494949363E414141227F414141BC
:1001C0003E7F494949417F090909013E4141517337
:1001D0007F0808087F00417F41002040413F017FA8
:1001E000081422417F404040407F021C027F7F0470
:1001F00008107F3E4141413E7F090909063E4151B9
:10020000215E7F09192946264949493203017F01A8
:10021000033F4040403F1F2040201F3F4038403FA9
:10022000631408146303047804036159494D4300BF
:100230007F4141410204081020004141417F0402F6
:10024000010204404040404000030708002054548D
:1002500078407F284444383844444428384444286B
:100260007F385454541800087E090218A4A49C78BE
:100270007F0804047800447D40002040403D007F1A
:100280001028440000417F40007C047804787C08FA
:100290000404783844444438FC18242418182424CE
:1002A00018FC7C08040408485454542404043F44B3
:1002B000243C4040207C1C2040201C3C4030403CE2
:1002C00044281028444C9090907C4464544C440042
:1002D00008364100000077000000413608000201A6
:1002E0000204023C2623263C1EA1A161123A404092
:1002F000207A38545455592155557941225454780F
:1003000042215554784020545579400C1E527212A7
:100310003955555559395454545939555454580030
:1003200000457C410002457D420001457C407D1234
:1003300011127DF0282528F07C5455450020545496
:100340007C547C0A097F4932494949323A44444441
:100350003A324A4848303A4141217A3A424020787C
:10036000009DA0A07D3D4242423D3D4040403D3C7D
:1003700024FF2424487E4943662B2FFC2F2BFF09A2
:1003800029F620C0887E0903205454794100004496
:100390007D413048484A32384040227A007A0A0A81
:1003A000727D0D19317D2629292F282629292926F4
:1003B00030484D4020380808080808080808382F39
:1003C00010C8ACBA2F102834FA00007B00000814C3
:1003D0002A142222142A14085500550055AA55AA99
:1003E00055AAFF55FF55FF000000FF00101010FF39
:1003F00000141414FF001010FF00FF1010F010F094
:10040000141414FC001414F700FF0000FF00FF1484
:1004100014F404FC141417101F10101F101F1414D0
:10042000141F00101010F0000000001F101010101A
:100430001F10101010F010000000FF10101010100E
:1004400010101010FF10000000FF140000FF00FF4C
:1004500000001F10170000FC04F4141417101714E8
:1004600014F404F40000FF00F7141414141414140A
:10047000F700F7141414171410101F101F1414147D
:10048000F4141010F010F000001F101F0000001FE7
:1004900014000000FC140000F010F01010FF10FF1A
:1004A000141414FF141010101F00000000F010FFAF
:1004B000FFFFFFFFF0F0F0F0F0FFFFFF0000000093
:1004C00000FFFF0F0F0F0F0F3844443844FC4A4A17
:1004D0004A347E02020606027E027E0263554941CC
:1004E000633844443C04407E201E2006027E020203
:1004F00099A5E7A5991C2A492A1C4C7201724C3017
:100500004A4D4D303048784830BC625A463D3E49ED
:100510004949007E0101017E2A2A2A2A2A44445F91
:10052000444440514A444040444A51400000FF0185
:1005300003E080FF000008086B6B08361236243693
:10054000060F090F060000181800000010100030F8
:1005500040FF0101001F01011E00191D1712003C80
:100560003C3C3C00000000000000000800020100CC
:10057000000304070000000000000000000000006D
:10058000240027002A0004E010021C071237322939
:100590002D29252B3900010310E110031D07062E1C
:1005A0002C292D2E2E373F0000021013800A29809F
:1005B00064022A040000007F2B040000009F0F014A
:1005C00080961180FFB103012C2DB203012C2DB3B5
:1005D00006012C2D012C2DB40107C003A20284C1F9
:1005E00001C5C2020A00C3028A2AC4028AEEC501FA
:1005F0000E20003601C83A01050000000023002645
:1006000000290000000000250028002B000404043D
:1006100004040404040202020202020303030303AB
:100620000301020408102040800102040810200188
:100630000204081020009C12ED1511241FBECFEFFC
:10064000D8E0DEBFCDBF11E0A0E0B1E0E2E9FCE21E
:1006500002C005900D92A039B107D9F723E0A0E9B7
:10066000B1E001C01D92A237B207E1F713E0CCE17F
:10067000D3E004C02197FE010E943116CB31D1078F
:10068000C9F70E94E1130C943C160C940000AF9241
:10069000BF92CF92DF92EF92FF920F931F93CF936F
:1006A000DF936C017B018B01040F151FEB015E01D1
:1006B000AE18BF08C017D10759F06991D601ED9166
:1006C000FC910190F081E02DC6010995892B79F705
:1006D000C501DF91CF911F910F91FF90EF90DF90B7
:1006E000CF90BF90AF900895FC01538D448D252F7E
:1006F00030E0842F90E0821B930B541710F0CF96BC
:10070000089501970895FC01918D828D981761F0ED
:10071000A28DAE0FBF2FB11D5D968C91928D9F5F04
:100720009F73928F90E008958FEF9FEF0895FC01E3
:10073000918D828D981731F0828DE80FF11D858D96
:1007400090E008958FEF9FEF0895FC01918D228D29
:10075000892F90E0805C9F4F821B91098F739927AE
:10076000089580E592E00E94A50321E0892B09F419
:1007700020E0822F089580E090E0892B29F00E94EC
:10078000B10381110C9400000895FC01A48DA80F01
:10079000B92FB11DA35ABF4F2C91848D90E00196C3
:1007A0008F739927848FA689B7892C93A089B189E3
:1007B0008C91837080648C93938D848D981306C084
:1007C0000288F389E02D80818F7D80830895EF92E8
:1007D000FF920F931F93CF93DF93EC0181E0888FFB
:1007E0009B8D8C8D98131AC0E889F989808185FFCB
:1007F00015C09FB7F894EE89FF896083E889F9896D
:1008000080818370806480839FBF81E090E0DF916E
:10081000CF911F910F91FF90EF900895F62E0B8DC1
:1008200010E00F5F1F4F0F731127E02E8C8D8E117C
:100830000CC00FB607FCFACFE889F989808185FFE3
:10084000F5CFCE010E94C503F1CFEB8DEC0FFD2F4C
:10085000F11DE35AFF4FF0829FB7F8940B8FEA899E
:10086000FB8980818062CFCFCF93DF93EC01888DAD
:100870008823B9F0AA89BB89E889F9898C9185FD1B
:1008800003C0808186FD0DC00FB607FCF7CF8C91A9
:1008900085FFF2CF808185FFEDCFCE010E94C50399
:1008A000E9CFDF91CF91089590E0FC01E859FA4F2C
:1008B0002491FC01EF5DF94F3491FC01E35FF94FA6
:1008C000E491EE23C9F0222339F0233001F1A8F49A
:1008D000213019F1223029F1F0E0EE0FFF1FED5F1A
:1008E000F94FA591B4918FB7F894EC91611126C09E
:1008F00030953E233C938FBF08952730A9F02830D0
:10090000C9F0243049F7809180008F7D03C0809129
:1009100080008F7780938000DFCF84B58F7784BD90
:10092000DBCF84B58F7DFBCF8091B0008F77809334
:10093000B000D2CF8091B0008F7DF9CF3E2BDACFBF
:10094000CF93DF9390E0FC01EF5DF94F2491835F3B
:10095000994FFC0184918823D1F090E0880F991F72
:10096000FC01E458FA4FA591B491FC01ED5FF94FF9
:10097000C591D49161110EC09FB7F8948C91E22F6C
:10098000E0958E238C932881E223E8839FBFDF913B
:10099000CF9108958FB7F894EC91E22BEC938FBF31
:1009A000F6CF3FB7F8948091420290914302A09114
:1009B0004402B091450226B5A89B05C02F3F19F00F
:1009C0000196A11DB11D3FBFBA2FA92F982F8827CF
:1009D000BC01CD01620F711D811D911D42E0660FAA
:1009E000771F881F991F4A95D1F708958F929F927C
:1009F000AF92BF92CF92DF92EF92FF926B017C0198
:100A00000E94D1044B015C01C114D104E104F10442
:100A1000B9F00E94D104681979098A099B09683ED6
:100A200073408105910580F321E0C21AD108E108E5
:100A3000F10888EE880E83E0981EA11CB11CE4CF5B
:100A4000FF90EF90DF90CF90BF90AF909F908F90EE
:100A500008952091F701260F3327331F21323105E6
:100A6000ECF420911B02FC0190E080E0243069F05E
:100A700082E00895A091F7012191AC0149525E4FA7
:100A8000A40FB52FB11D2C930196861798F3809172
:100A9000F701680F6093F70180E0089581E0089501
:100AA00008958FEF9FEF08958FEF9FEF0895809146
:100AB000D00190E09195819591090895CF93DF93AE
:100AC000CB01EA01642F0E942905CE01DF91CF916D
:100AD0000895CF93DF931F92CDB7DEB7698361E0AE
:100AE000CE0101960E94290581E090E00F90DF91F0
:100AF000CF91089520914802309149022817390773
:100B000071F49091460280914702981741F0E0916C
:100B10004602F0E0E057FE4F808190E008958FEFAD
:100B20009FEF0895EF92FF920F931F93CF93DF9360
:100B3000DC015C96ED90FC905D97E114F10479F492
:100B400081E090E013969C938E93129790E080E062
:100B5000DF91CF911F910F91FF90EF9008955196E3
:100B6000ED91FC91529750968C915097982F9095BB
:100B70000FB75E962C915E97122F127021FD609533
:100B8000F8942081112319F1282B2083E701219764
:100B9000F1F728E0462F50E0308160FF1AC0382B73
:100BA0003083E7012197F1F7BA01759567952150D8
:100BB00089F7112381F08081892380830FBF5C96A0
:100BC0008D919C910197F1F781E090E0C1CF2923AD
:100BD000DCCF3923E5CF9081892BEFCF20914802DC
:100BE000309149022817390771F48091470220910A
:100BF000460290E0805C9F4F821B910960E470E0A8
:100C00000E940916089590E080E00895209148021E
:100C10003091490228173907B9F490914602809122
:100C20004702981789F0E0914602F0E0E057FE4F46
:100C300080812091460230E02F5F3F4F2F73332792
:100C40002093460290E008958FEF9FEF0895DC0116
:100C50009C96ED91FC919D979081D1968C91892BDA
:100C600080830895DC019A96ED91FC919B97908189
:100C7000D0968C918095892380830895DC019A9683
:100C8000ED91FC919B979081D0968C91892B8083DC
:100C90000895EF92FF920F931F93DC011A960D9126
:100CA0001C911B9718962D913C911997ED91FC91F1
:100CB00000A0F1A1E02D7B0150E040E070E060E099
:100CC00009951F910F91FF90EF900895FC01848D7D
:100CD00028E030E090E8882339F06EBD00000DB4C4
:100CE00007FEFDCF8EB50895A6A1B7A186A5462F14
:100CF0004923A9F04C91842B8C93A0A5B1A58C918C
:100D000047A5842B8C93A0A5B1A54C9187A5809570
:100D100084238C9396952150310931F708954C9195
:100D200080958423E9CF08958CBD9DBD08951F93C0
:100D3000CF93DF93EC01162F8C8D882331F08091B7
:100D4000ED029091EE020E949406CE010E942706C9
:100D5000CE010E943206612FCE010E946606CE01AE
:100D6000DF91CF911F910C943E061F93CF93DF9399
:100D7000EC01162F8C8D882331F08091ED0290913B
:100D8000EE020E949406ECA5FDA5908189A98095AC
:100D900089238083CE010E943206612FCE010E94FA
:100DA0006606CE01DF91CF911F910C943E06611132
:100DB00003C060E20C94B50661E2FCCF1F93CF93B1
:100DC000DF93EC01162F66E30E94B50613701E8BAD
:100DD0008B8D1230B1F1133009F44AC01130D1F0CB
:100DE000823019F068EC843009F460ECCE010E9486
:100DF00097068B8D813061F580E890E09B878A872C
:100E0000998788878AA18CA38BA18DA3DF91CF912D
:100E10001F910895823019F068EA843009F460EA7D
:100E2000CE010E9497068B8D813049F580E890E0D5
:100E3000998788879B878A878AA18DA38BA18CA39A
:100E4000E5CF823019F068E0843081F660E0CECFE3
:100E5000843039F480EA90E09B878A8780E590E0CF
:100E6000CFCF80EA90E09B878A8780E890E0C8CF68
:100E7000823019F068E6843099F660E6D1CF84308C
:100E800039F480EA90E09987888780E590E0D2CFB6
:100E900080EA90E09987888780E890E0CBCFEF9256
:100EA000FF920F931F93CF93DF93EC01E62E142F45
:100EB000F22E6AE20E94B50660E0CE010E9497061B
:100EC0006CA16E0DCE010E94970660E0CE010E94DB
:100ED00097066CA16F0DCE010E9497066BE2CE01C2
:100EE0000E94B50660E0CE010E9497066DA1610FD9
:100EF000CE010E94970660E0CE010E9497066DA188
:100F0000600FCE010E9497066CE2CE01DF91CF9177
:100F10001F910F91FF90EF900C94B506AF92BF9286
:100F2000CF92DF92EF92FF920F931F93CF93DF93B5
:100F3000EC015901680128853985621773070CF0A7
:100F400053C08A859B85481759070CF04DC0FB019B
:100F5000EA0DFB1D2E173F071CF45901A61AB70A0C
:100F60009A012C0D3D1D821793071CF46C01C41AC5
:100F7000D50A0FEF040F0C0D2FEF260F2A0DCE010F
:100F80000E944F078C8D882331F08091ED02909163
:100F9000EE020E949406CE010E942706CE010E9416
:100FA00032061C141D049CF48501101611065CF415
:100FB0006F2DCE010E9466066E2DCE010E94660640
:100FC00001501109F2CF81E0C81AD108EACFCE0151
:100FD000DF91CF911F910F91FF90EF90DF90CF9015
:100FE000BF90AF900C943E06DF91CF911F910F916F
:100FF000FF90EF90DF90CF90BF90AF900895DF9279
:10100000EF92FF920F931F93CF93DF93EC0179013F
:10101000D02E8885998568177907DCF52A853B8568
:1010200042175307B4F59B012E0D3F1D82179307FE
:101030001CF47C01E61AF70A2FEF260F2E0D042F61
:10104000CE010E944F078C8D882331F08091ED02F4
:101050009091EE020E949406CE010E942706CE01D6
:101060000E94320681E0E81AF10848F0612FCE01B3
:101070000E9466066D2DCE010E946606F3CFCE015A
:10108000DF91CF911F910F91FF90EF90DF900C9423
:101090003E06DF91CF911F910F91FF90EF90DF906F
:1010A0000895DF92EF92FF920F931F93CF93DF93F8
:1010B000EC017901D02E8885998568177907DCF5D0
:1010C0008A859B8548175907B4F59A012E0D3F1D57
:1010D000821793071CF47C01E41AF50A0FEF040F42
:1010E0000E0D262FCE010E944F078C8D882331F0E4
:1010F0008091ED029091EE020E949406CE010E9432
:101100002706CE010E94320681E0E81AF10848F075
:10111000612FCE010E9466066D2DCE010E946606EB
:10112000F3CFCE01DF91CF911F910F91FF90EF9000
:10113000DF900C943E06DF91CF911F910F91FF90AD
:10114000EF90DF900895FF920F931F93CF93DF935B
:10115000EC0177FD34C088859985681779077CF59F
:1011600057FD2DC08A859B854817590744F5F32EF6
:10117000122F01E0040F21E0260FCE010E944F073D
:101180008C8D882331F08091ED029091EE020E94C7
:101190009406CE010E942706CE010E9432066F2DD2
:1011A000CE010E946606612FCE010E946606CE0126
:1011B000DF91CF911F910F91FF900C943E06DF912C
:1011C000CF911F910F91FF9008958F929F92AF92B0
:1011D000BF92DF92EF92FF920F931F93CF93DF9313
:1011E0008C01EB012196FB01D490DA94FFEFDF161E
:1011F00009F432C0FE016491C8010E94B5064E0197
:10120000F2E08F0E911CFE013196F490CF2DCF7736
:101210005401DC2FD15048F0F5016491C8010E94BF
:101220009706FFEFAF1ABF0AF5CFC80DD92DD11D14
:10123000F7FEDBCF7E018FEFE81AF80AFE0164911A
:1012400070E06F3F710511F464EF71E090E080E0B1
:101250000E94F604E701C9CFDF91CF911F910F9152
:10126000FF90EF90DF90BF90AF909F908F90089588
:101270000895FC016370668B848195812681378196
:10128000613039F0633029F0918780873387228776
:101290000895318720879387828708952F923F9200
:1012A0004F925F926F927F928F929F92AF92BF9276
:1012B000CF92DF92EF92FF920F931F93CF93DF9322
:1012C000CDB7DEB76A970FB6F894DEBF0FBECDBFBD
:1012D0009A8F898F7A8369834A01D22E18870F8368
:1012E0003701BC2CDC0159962D913C915A97211560
:1012F000310509F015C118968D919C9119976817C1
:1013000079070CF0D7C11A968D919C91481759070F
:101310000CF0D0C14C2C512CB6E0CB9E600D711D51
:1013200011247C876B87161617060CF0C3C1EA2DB3
:10133000F0E0FA87E98793E0EE0FFF1F9A95E1F757
:10134000F88BEF87CF01840F951F181619060CF044
:10135000B1C1A98DBA8D58968C91811104C0BFEA94
:10136000BD1508F4D394A98DBA8DED91FC91119718
:101370000284F385E02DCD010995B5E0DB9EC00127
:101380001124E981FA81FC83EB83312C212C9C010F
:1013900028593F4F388F2F8B4A2D50E05E8B4D8B55
:1013A000EF89F88DE20DF31D44919E828D82D12C40
:1013B000C12C69817A81620D731D7A8B698B842FB0
:1013C00090E09C8B8B8BE98DFA8DA081B18140FFE1
:1013D00082C0F1E0BF126FC0AF126DC01C96ED91DC
:1013E000FC912F813885A4014C0D5D1D69897A8996
:1013F000898D9A8D0995EB89FC89F595E7954E2F96
:101400005FEFC51AD50A6D817E818D899E89680F2F
:10141000791F7E836D8398E0C916D10481F6AFEF02
:101420002A1A3A0AEB81FC81E40DF51DFC83EB835B
:10143000F5E02F16310409F0B3CF2F81388526153A
:101440003705B9F0A98DBA8DED91FC91B1E0BB12D1
:1014500057C0AB1255C069817A816B5F7F4F00889E
:10146000F189E02D830128E030E0A401898D9A8D77
:101470000995A98DBA8DED91FC9111970688F78990
:10148000E02DCD016A960FB6F894DEBF0FBECDBF3A
:10149000DF91CF911F910F91FF90EF90DF90CF9050
:1014A000BF90AF909F908F907F906F905F904F9084
:1014B0003F902F9009941E96ED91FC91EF80F88457
:1014C00009851A8592014D815E816B817C81898DB0
:1014D0009A8D099590CF2F8138852615370509F407
:1014E0008ACF31E0B31207C0A31205C01C96ED915C
:1014F000FC91930178CF1E96ED91FC917301E0CFA2
:101500006B857C85641975090684F785E02D730168
:101510000F8518899201A401898D9A8D0995A9CF0B
:10152000F90134969491329745915491D91AB7E0C4
:10153000DB9E400D511D1124F901259134913C8B06
:101540002B8BFA0125903490FA01329674903196E3
:101550003491398B329664903196449041E04C1529
:1015600018F04A1508F07FC0662D062C000C770B8A
:101570007C836B83842D042C000C990B9E838D83BC
:10158000A98DBA8DED91FC9111970284F385E02D20
:10159000CD010995512CD12CC12CEA2DF0E0FA8710
:1015A000E9872B2D30E03C872B87A401440D511D8A
:1015B00047FC5A95588F4F8B69817A81660D711D52
:1015C00067FC7A957E876D877989C71608F051CFB9
:1015D0002C2D30E04D815E81420F531FA985BA85C5
:1015E0004A9FC0014B9F900D5A9F900D1124FC0102
:1015F000E80DF91DF88BEF87852D612C4F89588DEB
:10160000420F531F5E8B4D8B671408F050C044246B
:101610004394480E877041F4C1010196EB89FC891F
:10162000E20DF31DD4901C01D7FE19C0A98DBA8D0F
:10163000ED91FC91662D70E0B1E0BB1219C0AB12C8
:1016400017C02D853E85620F731F0484F585E02D3C
:101650002F8138854D895E89898D9A8D0995DD0C9C
:101660006394842DD1CF1E821D821C821B8288CF61
:101670004B815C81640F751FAB85BC856A9FC0017F
:101680006B9F900D7A9F900D112469817A81680F6C
:10169000791F0684F785E02DEF80F88409851A8587
:1016A0009D014F855889898D9A8D0995D8CF570C02
:1016B000C3948ACF6A960FB6F894DEBF0FBECDBF33
:1016C000DF91CF911F910F91FF90EF90DF90CF901E
:1016D000BF90AF909F908F907F906F905F904F9052
:1016E0003F902F9008958F929F92AF92CF92EF925A
:1016F000FF920F931F93CF93DF93EC01262F898DD9
:101700009A8D009709F051C06A30D1F41D861C866D
:101710008D8948E0849F900111248E859F85820FDA
:10172000931F9F878E8781E090E0DF91CF911F917B
:101730000F91FF90EF90CF90AF909F908F90089572
:101740006D3089F3CC88AD888F898823C1F08C8572
:101750009D8536E0C39E800D911D112448855985D5
:101760004817590764F44E855F851D861C8638E04E
:10177000A39EC0011124840F951F9F878E87EA883E
:10178000FB88088919894E855F856C857D85CE012A
:101790000E944E092C898C859D8546E0249F800DF2
:1017A000911D11249D878C87BECF6A3069F41D86F8
:1017B0001C86FC013896E4912D898E859F85E29FD9
:1017C000800D911D1124ADCF6D3009F4ACCFFC011B
:1017D00034963491631708F4A6CF3296E491E61755
:1017E00008F4A1CFFC01329685909490462F431BBC
:1017F000342F47E0349F800C911C1124F401329661
:1018000034913196E4913323A9F1EE2399F1CC88F8
:10181000F4013596E491AD884F89442301F10E2EF1
:10182000000CFF0BE30FF11DCE9EA001CF9E500DCB
:1018300011246C857D85460F571F6885798564174F
:1018400075076CF44E855F851D861C86FC013896F5
:10185000E491AE9E400D511D11245F874E87EA88AA
:10186000FB88088919894E855F856C857D85CE0149
:101870000E944E09F4013496E4912C898C859D8553
:10188000E29F800D911D11248DCF6F927F928F92D8
:101890009F92AF92BF92CF92DF92EF92FF920F93FF
:1018A0001F93CF93DF93EC016B015A01390148017B
:1018B000E881F9810284F385E02D0995E881F981B9
:1018C0000288F389E02D87019301A501B601CE01BD
:1018D0000995A501480D591D41505109E881F9812B
:1018E0000288F389E02D9301B601CE010995E881C4
:1018F000F9810088F189E02D9401A501B601CE019E
:101900000995C60CD71CB60161507109E881F981AF
:101910000088F189E02D9401A501CE010995E881A7
:10192000F9810688F789E02DCE01DF91CF911F91D3
:101930000F91FF90EF90DF90CF90BF90AF909F906E
:101940008F907F906F9009946F927F928F929F9269
:10195000AF92BF92CF92DF92EF92FF920F931F93BD
:10196000CF93DF935C01EB016A01490138018701E4
:10197000DC01ED91FC916217730719F56416750689
:101980002CF0962D872D3A01C92ED82E96012619B6
:1019900037092F5F3F4F048CF58DE02DA301BE0169
:1019A000C5010995DF91CF911F910F91FF90EF90A5
:1019B000DF90CF90BF90AF909F908F907F906F906F
:1019C00008954615570591F42617370724F0892DF9
:1019D0004B01C22FD82F9E01281939092F5F3F4F85
:1019E000068CF78DE02DA601B401DACF0284F385D1
:1019F000E02D0995D501ED91FC910488F589E02D44
:101A000083019401A601BE01C5010995D501ED919F
:101A1000FC910688F789E02DC501DF91CF911F91D8
:101A20000F91FF90EF90DF90CF90BF90AF909F907D
:101A30008F907F906F900994EF92FF920F931F9376
:101A4000DC011A960D911C911B9718962D913C91D3
:101A50001997ED91FC9100A0F1A1E02D7B0150E0E0
:101A600040E070E060E009951F910F91FF90EF90CA
:101A700008954F925F926F927F928F929F92AF9252
:101A8000BF92CF92DF92EF92FF920F931F93CF936B
:101A9000DF936C012B015A0139014801DC01ED9102
:101AA000FC910284F385E02D0995E201640C751C1C
:101AB000D601ED91FC91C615D7055CF40088F1893B
:101AC000E02D87019401A501BE01C601099521966B
:101AD000EFCF0688F789E02DC601DF91CF911F91E6
:101AE0000F91FF90EF90DF90CF90BF90AF909F90BD
:101AF0008F907F906F905F904F9009948F929F92FC
:101B0000AF92BF92CF92DF92EF92FF920F931F930B
:101B1000CF93DF93EC015B014A016901E881F98110
:101B20000284F385E02D099595012C0D3D1D215072
:101B30003109E881F9810488F589E02D7801840173
:101B4000A401B501CE010995E881F9810688F789DC
:101B5000E02DCE01DF91CF911F910F91FF90EF907B
:101B6000DF90CF90BF90AF909F908F9009948F920D
:101B70009F92AF92BF92CF92DF92EF92FF920F931C
:101B80001F93CF93DF93EC015B014A016901780158
:101B9000E881F9810284F385E02D0995C80CD91CF0
:101BA000860101501109E881F9810488F589E02D49
:101BB0009501A401B501CE010995E881F981068856
:101BC000F789E02DCE01DF91CF911F910F91FF900A
:101BD000EF90DF90CF90BF90AF909F908F9009943F
:101BE000EF92FF920F931F93DC01ED91FC9100A007
:101BF000F1A1E02D09951F910F91FF90EF900895AD
:101C00000F931F93DC01ED91FC91068CF78DE02D75
:101C100009951F910F9108950F931F93DC01ED918A
:101C2000FC91048CF58DE02D09951F910F9108957D
:101C3000DC01ED91FC910084F185E02D09942F9257
:101C40003F924F925F926F927F928F929F92AF924C
:101C5000BF92CF92DF92EF92FF920F931F93CF9399
:101C6000DF9300D000D000D0CDB7DEB73C016A01D1
:101C70003E832D83FC82EB825801A41AB50AB7FE7D
:101C800003C0B194A194B1088D809E80861A970AF2
:101C900097FE03C09194819491088A149B045CF090
:101CA000902F812F0D811E819D838E839C2D8D2DE4
:101CB0006B01692F782F0C151D055CF09D818E81BD
:101CC0007E836D83692F782F902F812F8601C92EF7
:101CD000D82E1601201A310A2B012D813E81421A7D
:101CE000530A57FE03C0519441945108710137FEC5
:101CF00003C03FEFE31AF30AF594E7948D819E81C8
:101D0000861797075CF5A1E0B0E0BA83A983C016F7
:101D1000D1064CF1D301ED91FC910484F585E02DC1
:101D20002B813C81A8016D817E818A149B041CF06B
:101D30004D815E81B801C3010995E418F508F7FEED
:101D40000AC02D813E8189819A81280F391F3E83E7
:101D50002D83E20CF31C0F5F1F4FD9CF2FEF3FEF06
:101D60003A832983D4CF26960FB6F894DEBF0FBEF0
:101D7000CDBFDF91CF911F910F91FF90EF90DF903A
:101D8000CF90BF90AF909F908F907F906F905F901B
:101D90004F903F902F900895089590E080E008952F
:101DA0001F93CF93DF93EC011BA21AA21CA21DA2CA
:101DB00061E08E8D0E94A00461E08D8D0E94A004E0
:101DC0008D8D082E000C990BFC01E35FF94FE49117
:101DD000F0E0EE0FFF1FED5FF94F259134913BA727
:101DE0002AA72E8D022E000C330BF901E35FF94F69
:101DF000E491F0E0EE0FFF1FED5FF94F4591549134
:101E00005DA74CA7FC01EF5DF94FE491E8ABF90148
:101E1000EF5DF94FE491E9AB8C8D882309F480C024
:101E20001FB7F89480914F02811127C0E7E1F6E0D7
:101E30008491EBE2F6E09491E82FF0E0EE0FFF1FC3
:101E4000E458FA4FA591B491EC91E92321F461E0B3
:101E50008AE00E94540461E08AE00E94A0048CB5EC
:101E600080618CBD8CB580648CBD61E08DE00E948A
:101E7000A00461E08BE00E94A00480914F028F5F7C
:101E800080934F021FBF80E58093ED0281E0809335
:101E9000EE02CE010E9432068F8D8F3F09F161E084
:101EA0000E94A00461E08F8D0E94540464EF71E0F1
:101EB00080E090E00E94F60460E08F8D0E94540460
:101EC00064EF71E080E090E00E94F60461E08F8DA5
:101ED0000E94540464EF71E080E090E00E94F604F8
:101EE0006EEB75E0CE010E94E50861EB75E0CE0176
:101EF0000E94E50866E875E0CE010E94E50866E309
:101F0000CE010E94B50660ECCE010E94970682E0E9
:101F10008B8F60E0CE01DF91CF911F910C94DE0694
:101F200061E089A10E94A00461E088A10E94A00450
:101F300060E089A10E94540460E088A10E945404DA
:101F400089A1082E000C990BFC01E35FF94FE49185
:101F5000F0E0EE0FFF1FED5FF94F2591349139A7A7
:101F600028A728A1022E000C330BF901E35FF94FDB
:101F7000E491F0E0EE0FFF1FED5FF94F45915491B2
:101F80005FA34EA3FC01EF5DF94FE491EFA7F901C8
:101F9000EF5DF94FE491EEA77CCF0E943716FB016D
:101FA00001900020E9F73197AF01461B570BDC0188
:101FB000ED91FC910280F381E02D09940F931F9322
:101FC000CF93DF93EC010E94CF0F8C0160E571E0AD
:101FD000CE010E94CF0F800F911FDF91CF911F91F3
:101FE0000F9108951F93CF93DF9385ED8093BC00ED
:101FF0008091D3019091D401A091D501B091D601E7
:102000000796A11DB11D23E0B695A79597958795D5
:102010002A95D1F72091BC0024FD03C010921B0229
:1020200052C04091D3015091D4016091D50170917B
:10203000D601452B462B472B69F30097A105B10527
:1020400041F025E32A95F1F700000197A109B109B4
:10205000E1CF8091D201C1E0C093D101882399F1F1
:10206000D091B8001091BA008091BC008A7B809317
:10207000BC0060E082E10E94540460E083E10E94C1
:10208000540410921B02C0931D0210921C0261E0C6
:1020900082E10E94540461E083E10E945404809133
:1020A000B9008E7F8093B9008091B9008D7F8093B5
:1020B000B90088E48093B80085E48093BC00109355
:1020C000BA00D093B800DF91CF911F9108951F926D
:1020D0000F920FB60F9211242F933F934F935F935C
:1020E0006F937F938F939F93AF93BF93EF93FF93E0
:1020F00080E592E00E94C503FF91EF91BF91AF91FF
:102100009F918F917F916F915F914F913F912F910F
:102110000F900FBE0F901F9018951F920F920FB641
:102120000F9211242F938F939F93EF93FF93E0913E
:102130006002F09161028081E0916602F091670295
:1021400082FD1BC09081809169028F5F8F73209107
:102150006A02821741F0E0916902F0E0E05BFD4F16
:10216000958F80936902FF91EF919F918F912F91AD
:102170000F900FBE0F901F9018958081F4CF1F9283
:102180000F920FB60F9211242F933F938F939F932B
:10219000AF93BF9380914A0290914B02A0914C0261
:1021A000B0914D023091410223E0230F2D3758F5B5
:1021B0000196A11DB11D2093410280934A02909384
:1021C0004B02A0934C02B0934D0280914202909139
:1021D0004302A0914402B09145020196A11DB11D98
:1021E0008093420290934302A0934402B09345022D
:1021F000BF91AF919F918F913F912F910F900FBE03
:102200000F901F90189526E8230F0296A11DB11D6F
:10221000D2CF1F920F920FB60F9211242F933F939C
:102220004F935F936F937F938F939F93AF93BF93DE
:10223000EF93FF938091B900887F803609F44AC0FC
:10224000F0F5883209F4A5C018F5803109F499C079
:10225000B8F4882309F4F5C0883009F492C0FF91DE
:10226000EF91BF91AF919F918F917F916F915F910E
:102270004F913F912F910F900FBE0F901F90189587
:10228000883109F486C0803251F780931A0214C055
:10229000803409F49BC040F48033B9F38833F9F6F5
:1022A00080931A0285ECAEC0803509F483C088356E
:1022B00009F494C0883499F60E94F20FD0CF88397F
:1022C00009F48AC038F5883729F050F4883611F0BF
:1022D000803729F683E080931B021092190255C0C3
:1022E000883809F479C0803919F0803809F0B7CFFF
:1022F00080911902803208F06FC0E091190281E0EC
:102300008E0F809319028091BB00F0E0E750FE4FE2
:1023100080833BC0803B39F0D0F4803A09F477C029
:10232000883A09F09CCF84E080931B021092F80158
:102330001092F701F0E0E0E009958091F70181113A
:102340000FC081E08093F7011092D70109C0803C53
:1023500009F4A8CF883C09F4A5CF883B09F07FCFCA
:10236000E091F80181E08E0F8093F801F0E0E952EE
:10237000FE4F80818093BB009091F8018091F7011E
:1023800029C0809140028093BB0085EC8093BC0003
:1023900066CF90913F0280913E02981758F5E091E8
:1023A0003F0281E08E0F80933F02F0E0E25EFD4F3E
:1023B0008081E9CFE0913F0281E08E0F80933F0260
:1023C0008091BB00F0E0E25EFD4F808390913F0280
:1023D00080913E029817C8F285E8D8CFE0913F027D
:1023E00081E08E0F80933F028091BB00F0E0E25EBF
:1023F000FD4F808380911D0281115ECF81E080932B
:102400001C0284EA8093BC0010921B0228CF85EC4A
:102410008093BC0010921B0280911902803230F42C
:10242000E0911902F0E0E750FE4F1082609119022E
:1024300070E089EF91E0F0E0E0E009951092190278
:102440000ECF10921A0238CF1F920F920FB60F9232
:1024500011242F933F934F935F936F937F938F93A9
:102460009F93AF93BF93EF93FF93E0914802F09156
:102470004902309749F0A685B7858585968D91FFED
:1024800014C09C918923A1F4FF91EF91BF91AF916A
:102490009F918F917F916F915F914F913F912F917C
:1024A0000F900FBE0F901F9018959C91892361F794
:1024B000A389B4899C918589809589238C93868989
:1024C00097890197F1F7608D718DA685B785558540
:1024D00038E020E0CB010197F1F7822F90E095954D
:1024E0008795282F4C91452309F02068315091F7AA
:1024F000868D81FD20958091470290E001968F7333
:10250000992730914602381799F0A0914702B0E020
:10251000A057BE4F2C9380934702828D938D0197D5
:10252000F1F7A389B4898C919589892B8C93ACCFD1
:10253000868D8160868FF1CF1092530210925202E5
:1025400088EE93E0A0E0B0E08093540290935502AF
:10255000A0935602B093570224E031E03093510229
:102560002093500225EC30E030935D0220935C0212
:1025700024EC30E030935F0220935E0220EC30E0E8
:10258000309361022093600221EC30E030936302CB
:102590002093620222EC30E03093650220936402C3
:1025A00026EC30E0309367022093660210926902B5
:1025B00010926A0210926B0210926C0220E5209336
:1025C000ED021092EE021092560310925503809382
:1025D000570390935803A0935903B0935A0382E48E
:1025E00091E0909354038093530310926A031092E6
:1025F000690310926C0310926B0310926E03109299
:102600006D031092700310926F03609171036E7FDF
:102610006D7F609371036695617081E0682783E048
:102620000E94540461E083E00E94A004E4E2F6E02A
:10263000E491E0936303E0E1F6E0E491F0E0EE0F73
:10264000FF1FED5FF94F85919491909365038093FF
:10265000640360E082E00E94A0048091710381FD28
:1026600004C061E082E00E94540482E080935F0332
:10267000E3E2F6E0E491E0936003EFE0F6E0E4915A
:10268000F0E0EE0FFF1FE750FA4F85919491909381
:10269000620380936103109224031092230360E885
:1026A00070E0709326036093250340EA50E0509356
:1026B00028034093270370932A03609329035093C0
:1026C0002C0340932B031092370310922E03109289
:1026D0002D031092300310922F0381E08093360374
:1026E000809335032FEF3FEF309334032093330370
:1026F00030933203209331038093380310923903CF
:1027000010923B0310923A03E6E1F1E0F0932203CA
:10271000E09321039AE090933E0398E090933F0367
:1027200099E09093400380933D03AFEFA093420361
:10273000A09341031092F2021092F1027093F402FE
:102740006093F3025093F6024093F5027093F802FF
:102750006093F7025093FA024093F9021092050336
:102760001092FC021092FB021092FE021092FD02E7
:1027700080930403809303033093020320930103A7
:10278000309300032093FF02809306031092070307
:102790001092090310920803F093F002E093EF0205
:1027A00085E080930C0384E080930D0387E08093A1
:1027B0000F0386E08093100390930E0310920B0397
:1027C0000895789484B5826084BD84B5816084BDA9
:1027D00085B5826085BD85B5816085BD80916E00BF
:1027E000816080936E0010928100809181008260F0
:1027F000809381008091810081608093810080912D
:1028000080008160809380008091B100846080931B
:10281000B1008091B00081608093B00080917A0017
:10282000846080937A0080917A00826080937A003D
:1028300080917A00816080937A0080917A0080682C
:1028400080937A001092C10081E293E00E94D00E42
:10285000E0916002F091610282E08083E0915C028D
:10286000F0915D021082E0915E02F0915F028FECC8
:10287000808310926802E0916402F091650286E024
:102880008083E0916202F0916302808180618083A5
:10289000E0916202F0916302808188608083E09120
:1028A0006202F0916302808180688083E09162021D
:1028B000F091630280818F7D808310926E0310926D
:1028C0006D0310926C0310926B0310926A031092C6
:1028D00069038DE991E09093700380936F03909169
:1028E0005F03963108F047C02DEB30E030936A0368
:1028F000209369032BE931E030936C0320936B0341
:102900002CE231E030936E0320936D032091680038
:1029100084E0983048F031E09E3008F430E081E007
:1029200001C0880F3A95EAF7822B809368002DE664
:1029300030E0983050F02BE630E09E3030F02CE65E
:1029400030E0963110F030E020E0309367032093C0
:102950006603292F30E0983008F010C181E001C0F3
:10296000880F9A95EAF78093680380916F0390919E
:1029700070030197F1F780916D0390916E03892B9D
:1029800049F1E0914802F091490283E0E335F8070C
:1029900009F1309739F0A389B4899C918589809594
:1029A00089238C93809171038E7F809371031092A1
:1029B00047021092460283E593E090934902809388
:1029C0004802E0916603F09167038081909168036B
:1029D000892B80838FEE92E00E94D00E8FB7F894FF
:1029E00040914A0250914B0260914C0270914D020D
:1029F0008FBF70E060E081E293E00E94490670E0E2
:102A000060E08FEE92E00E9449068FB7F894409103
:102A10004A0250914B0260914C0270914D028FBF5F
:102A200064E670E080E090E00E94F60410923803C3
:102A300070E060E081E293E00E94490610922E036C
:102A400010922D038EE190E09093300380932F033A
:102A5000C0E0D8EFD0933403C0933303D093320354
:102A6000C093310381E0809335038093360363E59F
:102A700071E081E293E00E94DE0F10920603D09392
:102A80000203C0930103D0930003C093FF0266E6E4
:102A900071E08FEE92E00E94DE0F68EE73E080E05E
:102AA00090E00E94F60440912B0350912C0357FFB5
:102AB00002C04F5F5F4F5595479560912903709114
:102AC0002A0377FF02C06F5F7F4F7595679520EEF1
:102AD00037E081E293E00E94A30864EF71E080E0B8
:102AE00090E00E94F60470E060E081E293E00E94D2
:102AF000490600E010E080E592E00E94A503892BE2
:102B000009F45FC080E592E00E948303C82F8093A0
:102B10004E02803409F03FC060E480E592E00E94FC
:102B2000E70360E571E080E592E00E94CF0F6091DD
:102B30004E0281E293E00E94730B60E571E081E256
:102B400093E00E94CF0F70E060E081E293E00E948A
:102B5000490610922E0310922D031092300310920A
:102B60002F0369E771E081E293E00E94DE0F6DE8D8
:102B700071E081E293E00E94DE0FBDCF9E3040F411
:102B80002850310981E001C0880F2A95EAF7EBCE81
:102B90002E503109F7CF833259F0682F80E592E04B
:102BA0000E94E7036C2F81E293E00E94730BA3CF96
:102BB0006EE871E080E592E00E94DE0F6EE871E061
:102BC000D8CF0115110509F496CF0E94B1038823CF
:102BD00009F491CF0E9400008ECF82E491E090939F
:102BE0005403809353038091480290914902835586
:102BF000934071F4E0916603F091670390818091B6
:102C000068038095892380831092490210924802BC
:102C1000089597FB072E16F4009407D077FD09D08E
:102C20000E941D1607FC05D03EF4909581959F4F9C
:102C30000895709561957F4F0895AA1BBB1B51E1C4
:102C400007C0AA1FBB1FA617B70710F0A61BB70B1C
:102C5000881F991F5A95A9F780959095BC01CD01C1
:102C60000895EE0FFF1F0590F491E02D099481E087
:102C700090E0F8940C943C1613E0CCE1D3E004C04F
:102C8000FE010E9431162196CD31D107C9F7F89483
:022C9000FFCF74
:102C920000000000E703470374033404A503830321
:102CA200970300000000730B4703CD0ECC0EA30860
:102CB2005005180EF00D0C0E000E1F0E5005DE060C
:102CC200D7065108FF078E074906A40C450C0000E1
:102CD200000092054703CD0E5005EE0506067A0563
:102CE2000D0A0043616E7465656E206D616E6167E9
:102CF200656D656E740074786964207072657061C8
:102D02006964206974656D73004944202020204E57
:102D1200414D4520202020505249434500202000AB
:00000001FF
