:100000000C9462000C948A000C948A000C948A0070
:100010000C948A000C948A000C948A000C948A0038
:100020000C948A000C948A000C948A000C948A0028
:100030000C948A000C948A000C948A000C948A0018
:100040000C94B0070C948A000C947E070C9458070B
:100050000C948A000C948A000C948A000C948A00F8
:100060000C948A000C948A000000000024002700F1
:100070002A0000000000250028002B0000000000DE
:1000800023002600290004040404040404040202DA
:100090000202020203030303030301020408102007
:1000A0004080010204081020010204081020000012
:1000B0000008000201000003040700000000000027
:1000C0000000FA0711241FBECFEFD8E0DEBFCDBF7E
:1000D00023E0A0EDB1E001C01D92A230B207E1F72C
:1000E00011E0A0E0B1E0E2EEF8E102C005900D926F
:1000F000A03DB107D9F710E0C2E6D0E004C02197D7
:10010000FE010E946E0AC136D107C9F70E94B408E9
:100110000C946F0C0C94000096E0899FD001112480
:10012000A958BD4F90967C936E935F9791E09196FE
:100130009C939197E091E402F091E5029091E302A3
:10014000992339F0309751F0811108C080919302C2
:100150000994309719F05C968C91FACF0895089520
:10016000AF92BF92CF92DF92EF92FF920F931F93C5
:10017000CF93DF936C017B018B01040F151FEB0103
:100180005E01AE18BF08C017D10759F06991D601BA
:10019000ED91FC910190F081E02DC6010995892B2C
:1001A00079F7C501DF91CF911F910F91FF90EF90EB
:1001B000DF90CF90BF90AF900895FC01538D448D98
:1001C000252F30E0842F90E0821B930B541710F002
:1001D000CF96089501970895FC01918D828D98170F
:1001E00061F0A28DAE0FBF2FB11D5D968C91928DE7
:1001F0009F5F9F73928F90E008958FEF9FEF089518
:10020000FC01918D828D981731F0828DE80FF11DE0
:10021000858D90E008958FEF9FEF0895FC01918DFB
:10022000228D892F90E0805C9F4F821B91098F73F4
:10023000992708958AED91E00E940E0121E0892B13
:1002400009F420E0822F089580E090E0892B29F0C6
:100250000E941A0181110C9400000895FC01A48DE4
:10026000A80FB92FB11DA35ABF4F2C91848D90E0D8
:1002700001968F739927848FA689B7892C93A089BB
:10028000B1898C91837080648C93938D848D981345
:1002900006C00288F389E02D80818F7D80830895D8
:1002A000EF92FF920F931F93CF93DF93EC0181E0C6
:1002B000888F9B8D8C8D98131AC0E889F98980816D
:1002C00085FF15C09FB7F894EE89FF896083E889A0
:1002D000F98980818370806480839FBF81E090E092
:1002E000DF91CF911F910F91FF90EF900895F62E1F
:1002F0000B8D10E00F5F1F4F0F731127E02E8C8DB9
:100300008E110CC00FB607FCFACFE889F9898081FD
:1003100085FFF5CFCE010E942E01F1CFEB8DEC0FC2
:10032000FD2FF11DE35AFF4FF0829FB7F8940B8F1A
:10033000EA89FB8980818062CFCFCF93DF93EC0184
:10034000888D8823B9F0AA89BB89E889F9898C91BD
:1003500085FD03C0808186FD0DC00FB607FCF7CF79
:100360008C9185FFF2CF808185FFEDCFCE010E9479
:100370002E01E9CFDF91CF910895833081F028F4E9
:10038000813099F08230A9F008958730A9F0883043
:10039000C9F08430B1F4809180008F7D03C08091DA
:1003A00080008F7780938000089584B58F7784BD17
:1003B000089584B58F7DFBCF8091B0008F778093B7
:1003C000B00008958091B0008F7DF9CFCF93DF9377
:1003D000282F30E0F901E255FF4F8491F901E656EC
:1003E000FF4FD491F901EA57FF4FC491CC23A1F0FC
:1003F00081110E94BD01EC2FF0E0EE0FFF1FE458C9
:10040000FF4FA591B491EC91ED2381E090E009F4C8
:1004100080E0DF91CF91089580E090E0FACF862FC1
:100420000C94E6011F93CF93DF93282F30E0F9015E
:10043000E255FF4F8491F901E656FF4FD491F9013F
:10044000EA57FF4FC491CC23A9F0162F81110E94C7
:10045000BD01EC2FF0E0EE0FFF1FEE58FF4FA5910E
:10046000B4918FB7F894EC91111108C0D095DE23A8
:10047000DC938FBFDF91CF911F910895DE2BF8CFD2
:10048000862F642F0C941202CF93DF9390E0FC012F
:10049000E656FF4F24918A579F4FFC018491882391
:1004A000C9F090E0880F991FFC01E859FF4FA59112
:1004B000B491FC01EE58FF4FC591D49161110DC06C
:1004C0009FB7F8948C91209582238C938881282360
:1004D00028839FBFDF91CF910895623051F49FB779
:1004E000F8943C91822F809583238C93E8812E2B66
:1004F000EFCF8FB7F894EC912E2B2C938FBFEACFD0
:10050000862F642F0C9444023FB7F8948091D50154
:100510009091D601A091D701B091D80126B5A89BA2
:1005200005C02F3F19F00196A11DB11D3FBFBA2F85
:10053000A92F982F8827BC01CD01620F711D811D45
:10054000911D42E0660F771F881F991F4A95D1F7CA
:1005500008958F929F92AF92BF92CF92DF92EF92C7
:10056000FF920E9484024B015C0188EEC82E83E05A
:10057000D82EE12CF12C0E948402681979098A098D
:100580009B09683E734081059105A8F321E0C21ADA
:10059000D108E108F10888EE880E83E0981EA11CBE
:1005A000B11CC114D104E104F10429F7FF90EF90CC
:1005B000DF90CF90BF90AF909F908F9008952FB70E
:1005C000F8946091D1017091D2018091D301909102
:1005D000D4012FBF08950F931F93CF93DF93C82F9C
:1005E000D62F86E0C89FF0011124E958FD4F11A2D3
:1005F000878D90A181309105F1F058F082309105FE
:10060000F1F1039709F440C0DF91CF911F910F9151
:1006100008956623C9F361E070E08C2F0E948C007E
:100620000E94DF026093CF027093D0028093D102C8
:100630009093D202E9CF0E94DF020091CF02109185
:10064000D0022091D1023091D202AB01BC01401BFB
:10065000510B620B730B8091E1029091E202B0E0CA
:10066000A0E084179507A607B70748F462E070E09A
:100670008C2FDF91CF911F910F910C948C0063E030
:1006800070E0D111C1CFF4CF70E060E0F1CF6F9294
:100690007F928F929F92AF92BF92CF92DF92EF9212
:1006A000FF920F931F93CF93DF9381E08093E30238
:1006B0000E94DF020091D3021091D4022091D50252
:1006C0003091D602AB01BC01401B510B620B730B86
:1006D0008091DF029091E002B0E0A0E084179507DE
:1006E000A607B70708F014C1C0E08091DD02C81763
:1006F00060F4E091D902F091DA02EC0FF11D62E0B2
:1007000080810E944402CF5FF0CF712C812C912C0C
:10071000540183948091DE02781608F05FC0072DA3
:1007200010E0E091DB02F091DC02E00FF11F61E0EC
:1007300080810E944402E091DB02F091DC02E00F34
:10074000F11F60E080810E941202D501C401072CD4
:1007500004C0880F991FAA1FBB1F0A94D2F76C010F
:100760007C01E094F094612C8091DD026816F8F42D
:10077000C62DD0E0E091D902F091DA02EC0FFD1F16
:1007800080810E94E6012496CC0FDD1FC958DD4F01
:10079000892B41F4888199818C299D2999838883AB
:1007A0006394E2CF888199818E219F21F7CFE091D8
:1007B000DB02F091DC02E00FF11F61E080810E941A
:1007C00012028091DB029091DC02080F191F60E099
:1007D000F80180810E94440273949CCFC7E7D2E065
:1007E000FE018FEF9FEF278D30A1232B21F4148E74
:1007F000968F858F11A2369622E0E33BF20799F798
:10080000F12C96E0D92E8091DD02F81608F050C048
:10081000E12C0F2D10E0000F111F01581D4F2091EA
:10082000DE02E21608F042C0F801608171810E2CF0
:1008300002C0769567950A94E2F7F29E9001112422
:100840002E0D311DE7E7F2E080E0458D568D24172F
:10085000350709F461C08F5F36968A30B1F760FFC3
:1008600023C0E7E7F2E090E080E0448D411117C03B
:10087000E091D702F091D802E20FF31F4081D89E99
:10088000F001D99EF00D1124E958FD4F448F368FA9
:10089000258F10A2178E61E00E94EB0205C0019621
:1008A00036968A30910509F7E394B9CFF394ABCF2C
:1008B00010E089A18111182F2696F2E0C33BDF07D3
:1008C000C1F70E94DF026093D3027093D402809339
:1008D000D5029093D6021123D9F0809198028823F3
:1008E000B9F08091960290919702019789F48091D6
:1008F0009302DF91CF911F910F91FF90EF90DF90C6
:10090000CF90BF90AF909F908F907F906F90089501
:100910001092E30280E0EDCF6170BECF0F931F9382
:100920000E94DF026093E2017093E3018093E4018F
:100930009093E5018AED91E00E94EC0097FF1DC0C5
:100940000E94DF020091E2011091E3012091E40195
:100950003091E501601B710B820B930B0091DE015E
:100960001091DF012091E0013091E10160177107E2
:1009700082079307F8F28FEF9FEF1F910F91089571
:1009800090E080E008950F931F93CF93DF93EC01E5
:10099000FB014481558160817181E881F981028088
:1009A000F381E02D09958C01E881F9810280F381C2
:1009B000E02D42E050E061E471E0CE010995800F46
:1009C000911FDF91CF911F910F910895FC0101902C
:1009D0000020E9F73197AF01481B590BBC0186EEA7
:1009E00092E00C94B0000F931F93CF93DF938C0190
:1009F000EB01FC01808191810097E1F068817981B0
:100A000061157105A9F0428153812C813D81421706
:100A1000530770F00E94680C8C819D81F8019583CA
:100A200084831D821C82DF91CF911F910F910895C5
:100A30000E94100B88819981F801918380838A81BB
:100A40009B81938382838C819D819583848319828A
:100A500018821B821A82E5CFFC0180819181009768
:100A600011F00C94100B08950F931F93CF93DF9305
:100A7000EC0188819981009759F02A813B812617E2
:100A8000370730F081E0DF91CF911F910F910895EA
:100A90008B016F5F7F4F0E94990B009759F09983EC
:100AA00088831B830A832C813D81232B59F7FC010A
:100AB0001082E8CF80E0E7CFCF93DF93EC0119827B
:100AC00018821B821A821D821C8270E060E00E94E4
:100AD00034052881398181110FC02115310519F0A4
:100AE000C9010E94100B198218821D821C821B8270
:100AF0001A82DF91CF9108951D821C8263E471E018
:100B0000C901DF91CF910C94680CEF92FF920F9383
:100B10001F93CF93DF9300D0CDB7DEB78C010E9437
:100B20005C050E948E0497FD1EC089831A82F8011D
:100B3000E480F580FFEFEF1AFF0AB701C8010E94B9
:100B40003405882371F3F8012081318184819581F6
:100B5000BE016F5F7F4F820F931F0E94680CF801E8
:100B6000F582E482DECFC8010F900F90DF91CF9124
:100B70001F910F91FF90EF900895CF93DF93EC01B9
:100B800060E08E810E94120261E08E810E9412025A
:100B900060E08E810E9412028BE891E00197F1F7EC
:100BA000DF91CF910895CF92DF92EF92FF920F9352
:100BB0001F93CF93DF936C017C0187E0E80EF11C5B
:100BC000D0E0C0E0062F10E0B8010C2E02C07595F1
:100BD00067950A94E2F76170F70181917F010E94A5
:100BE00012022196C430D10579F7C601DF91CF9169
:100BF0001F910F91FF90EF90DF90CF900C94BD0567
:100C0000CF92DF92EF92FF920F931F93CF93DF93D8
:100C1000EC01F62E642F8C810E9412028D818F3F91
:100C200019F060E00E9412020F2D10E08F8584FF02
:100C300025C06E0187E0C80ED11CF12CE12CB80153
:100C40000E2C02C0759567950A94E2F76170F60163
:100C500081916F010E941202FFEFEF1AFF0A88E0F4
:100C6000E816F10461F7CE01DF91CF911F910F914A
:100C7000FF90EF90DF90CF900C94BD05B80184E019
:100C8000759567958A95E1F7CE010E94D3056F2D82
:100C9000CE01DF91CF911F910F91FF90EF90DF90E8
:100CA000CF900C94D30540E0682F86EE92E00C9430
:100CB000000681E00E9453068BE39FE10197F1F764
:100CC0000895CF93DF93823029F49091F5029860D4
:100CD0009093F5028093F9021092FA0280E48093D7
:100CE000FB0280E18093FC0280E58093FD0261E0DD
:100CF0008091EA020E9444028091EB028F3F19F03A
:100D000061E00E94440261E08091EC020E94440292
:100D1000C6EED2E09E01265E32408091F50284FD4F
:100D20000BC084E090E021962817390744F461E075
:100D30008E810E944402EECF88E090E0F4CF8BE3F6
:100D40009DE00197F1F760E08091EA020E941202B3
:100D500060E08091EC020E9412028091EB028F3FD2
:100D600019F060E00E9412028091F50284FD34C007
:100D700063E086EE92E00E94D305CBE4D6E4CE0198
:100D80000197F1F763E086EE92E00E94D305219788
:100D9000F1F763E086EE92E00E94D30583E592E0EE
:100DA0000197F1F762E086EE92E00E94D305809110
:100DB000F50280620E94530684E08093F6028CE084
:100DC0000E9453060E94590682E08093F70286E053
:100DD000DF91CF910C94530680620E9453068BE4FE
:100DE00096E40197F1F78091F50280620E94530624
:100DF00083E592E00197F1F78091F50280620E940D
:100E00005306D5CFE091F902E23040F4E150F0E032
:100E1000EA51FD4F848980680C945306E1E0F7CFD6
:100E200041E00E94000681E090E00895EF92FF9279
:100E30000F931F93CF93DF9300D0CDB7DEB78C0114
:100E40000E945C050E944703F82E8823D9F341E0F5
:100E5000682F86EE92E00E94000683E2F816F1F019
:100E6000F9821A82F801E480F580FFEFEF1AFF0A99
:100E7000B701C8010E943405882321F3F8012081BD
:100E8000318184819581BE016F5F7F4F820F931FF7
:100E90000E94680CF801F582E482D4CFC8010F905B
:100EA0000F90DF91CF911F910F91FF90EF900895D8
:100EB0001F920F920FB60F9211242F933F934F93CF
:100EC0005F936F937F938F939F93AF93BF93EF93B2
:100ED000FF938AED91E00E942E01FF91EF91BF9167
:100EE000AF919F918F917F916F915F914F913F91C2
:100EF0002F910F900FBE0F901F9018951F920F9279
:100F00000FB60F9211242F938F939F93EF93FF931C
:100F1000E091EA01F091EB018081E091F001F09124
:100F2000F10182FD1BC090818091F3018F5F8F736F
:100F30002091F401821741F0E091F301F0E0E652D4
:100F4000FE4F958F8093F301FF91EF919F918F91C9
:100F50002F910F900FBE0F901F9018958081F4CFA6
:100F60001F920F920FB60F9211242F933F938F93DE
:100F70009F93AF93BF938091D1019091D201A091A3
:100F8000D301B091D4013091D00123E0230F2D374C
:100F900058F50196A11DB11D2093D0018093D10178
:100FA0009093D201A093D301B093D4018091D50145
:100FB0009091D601A091D701B091D8010196A11DC1
:100FC000B11D8093D5019093D601A093D701B09322
:100FD000D801BF91AF919F918F913F912F910F9029
:100FE0000FBE0F901F90189526E8230F0296A11DA3
:100FF000B11DD2CF1092DD011092DC0188EE93E09A
:10100000A0E0B0E08093DE019093DF01A093E001C7
:10101000B093E1018DE191E09093DB018093DA01DF
:1010200085EC90E09093E7018093E60184EC90E0FA
:101030009093E9018093E80180EC90E09093EB01BC
:101040008093EA0181EC90E09093ED018093EC01B4
:1010500082EC90E09093EF018093EE0186EC90E0BB
:101060009093F1018093F0011092F3011092F4013A
:101070001092F5011092F6011092E9021092E80226
:1010800089E391E09093E7028093E60283E1809305
:10109000EA028FEF8093EB0286E08093EC0285E01A
:1010A0008093ED0284E08093EE0283E08093EF0270
:1010B00082E08093F0021092F1021092F2021092FC
:1010C000F3021092F4021092F50281E00E94610690
:1010D0001092790210927D0210927C0210927E0290
:1010E0008FE291E09093780280937702E3E9F2E057
:1010F0001082148213821582369682E0EF3CF80744
:10110000B9F783E091E09093DA028093D90280E00E
:1011100091E09093DC028093DB0284E08093DD0217
:1011200083E08093DE0287E091E09093D802809381
:10113000D7028AE090E09093E0028093DF0284EF90
:1011400091E09093E2028093E1021092E502109206
:10115000E4021092D3021092D4021092D50210929F
:10116000D6021092E3020895CF93DF93CDB7DEB796
:101170006E970FB6F894DEBF0FBECDBF789484B5DE
:10118000826084BD84B5816084BD85B5826085BD83
:1011900085B5816085BD80916E00816080936E0011
:1011A0001092810080918100826080938100809103
:1011B00081008160809381008091800081608093B4
:1011C00080008091B10084608093B1008091B00074
:1011D00081608093B00080917A00846080937A006F
:1011E00080917A00826080937A0080917A00816099
:1011F00080937A0080917A00806880937A001092C0
:10120000C100E091EA01F091EB0182E08083E0917E
:10121000E601F091E7011082E091E801F091E90127
:101220008FEC80831092F201E091EE01F091EF01DA
:1012300086E08083E091EC01F091ED018081806196
:101240008083E091EC01F091ED01808188608083E2
:10125000E091EC01F091ED01808180688083E09164
:10126000EC01F091ED0180818F7D808361E083E16D
:101270000E94440282E00E94610600E010E0CE017C
:1012800049960E945C05CE0143960E945C05CE0102
:101290000D960E945C050E94590684E491E00E942C
:1012A000E6040E9447038332E1F70E94590686E56F
:1012B00091E00E94E6040E940207CE0101960E947E
:1012C0001607BE016F5F7F4FCE0149960E94F3045F
:1012D000CE0101960E942C050E94590686E691E0F7
:1012E0000E94E6040E940207CE0101960E941607A2
:1012F000BE016F5F7F4FCE0143960E94F304CE0183
:1013000001960E942C050E945906BE01675E7F4F20
:101310008AED91E00E94C304BE016D5E7F4F8AEDAD
:1013200091E00E94C30486E791E00E94E6040E94D7
:10133000A9028AED91E00E940E01892BD1F3CE0122
:1013400007960E9485058B859C85892B09F488C0AA
:1013500065E871E08F8198850E945F0C892B09F008
:101360007FC00E94590687E891E00E94E6040E942F
:10137000A9020E94590685E991E00E94E6040E94B4
:101380000207CE0101960E941607BE016F5F7F4FD4
:10139000CE010D960E94F304CE0101960E942C0509
:1013A000BE01635F7F4F8AED91E00E94C3040E94FB
:1013B000A9028AED91E00E940E01892BD1F3CE01A2
:1013C00001960E9485058D819E81892B21F0E981FE
:1013D000FA81309721F41092D901E9EDF1E0808192
:1013E0008133B9F50E94590687EA91E00E94E6042C
:1013F0000E94A9020E945906BE016F5F7F4F86EED0
:1014000092E00E94C3040E9447038332E1F7CE01B9
:1014100001960E942C05CE0107960E942C050E9481
:10142000A902CE010D960E942C05CE0143960E9482
:101430002C05CE0149960E942C050115110509F4D1
:101440001ECF0E941A01882309F419CF0E940000C0
:1014500016CF0E94590687EB91E00E94E604D7CF91
:101460000E94590684EC91E00E94E604D4CF2F92AA
:101470003F924F925F926F927F928F929F92AF9224
:10148000BF92CF92DF92EF92FF920F931F93CF9371
:10149000DF93CDB7DEB7CA1BDB0B0FB6F894DEBF08
:1014A0000FBECDBF09942A88398848885F846E842E
:1014B0007D848C849B84AA84B984C884DF80EE8078
:1014C000FD800C811B81AA81B981CE0FD11D0FB681
:1014D000F894DEBF0FBECDBFED010895EE0FFF1FE4
:1014E0000590F491E02D09940F931F93CF93DF9310
:1014F0008230910510F482E090E0E0910003F091D9
:10150000010330E020E0B0E0A0E0309799F421152D
:10151000310509F44AC0281B390B24303105D8F5B0
:101520008A819B816115710589F1FB019383828317
:10153000FE0111C040815181028113814817590772
:10154000E0F04817590799F4109761F012960C9340
:10155000129713961C933296CF01DF91CF911F9172
:101560000F9108950093000310930103F4CF211508
:10157000310551F04217530738F0A901DB019A01F8
:10158000BD01DF01F801C1CFEF01F9CF9093010355
:1015900080930003CDCFFE01E20FF31F819391935F
:1015A0002250310939832883D7CF2091FE02309110
:1015B000FF02232B41F42091150130911601309345
:1015C000FF022093FE022091130130911401211596
:1015D000310541F42DB73EB74091170150911801E4
:1015E000241B350BE091FE02F091FF02E217F30796
:1015F000A0F42E1B3F0B2817390778F0AC014E5F83
:101600005F4F2417350748F04E0F5F1F5093FF02BE
:101610004093FE02819391939FCFF0E0E0E09CCF56
:10162000CF93DF930097E9F0FC0132971382128287
:10163000A0910003B0910103ED0130E020E010978C
:10164000A1F420813181820F931F2091FE023091FD
:10165000FF022817390709F061C0F093FF02E093F9
:10166000FE02DF91CF910895EA01CE17DF07E8F57A
:101670004A815B819E0141155105B1F7E901FB8368
:10168000EA8349915991C40FD51FEC17FD0761F406
:10169000808191810296840F951FE9019983888347
:1016A000828193819B838A83F0E0E0E012968D91A2
:1016B0009C9113970097B9F52D913C911197CD010D
:1016C0000296820F931F2091FE023091FF0228178D
:1016D000390739F6309751F5109201031092000343
:1016E000B093FF02A093FE02BCCFD383C28340819C
:1016F0005181840F951FC817D90761F44E5F5F4F62
:1017000088819981480F591F518340838A819B8129
:10171000938382832115310509F0B0CFF093010343
:10172000E09300039ECFFD01DC01C0CF1382128243
:10173000D7CFB0E0A0E0EFE9FBE00C94390A8C01D0
:10174000009751F4CB010E94740A8C01C801CDB7F7
:10175000DEB7E0E10C94550AFC01E60FF71F9C018F
:1017600022503109E217F30708F49DC0D901CD9149
:10177000DC911197C617D70798F0C530D10530F323
:10178000CE0104978617970708F3C61BD70B22973D
:10179000C193D1936D937C93CF010E94100BD6CF50
:1017A0005B01AC1ABD0A4C018C0E9D1EA09100037A
:1017B000B0910103512C412CF12CE12C109731F503
:1017C0008091FE029091FF028815990509F05CC096
:1017D0004616570608F058C08091130190911401E5
:1017E000009741F48DB79EB74091170150911801B1
:1017F000841B950BE817F90708F055C0F093FF021A
:10180000E093FE02F90171836083A0CF8D919C91DA
:10181000119712966C90129713967C901397A815B7
:10182000B90559F56C0142E0C40ED11CCA14DB04A1
:1018300020F1AC014A195B09DA011296159780F084
:101840006282738251834083D9016D937C93E1144A
:10185000F10471F0D7011396FC93EE93129776CFB3
:1018600022968C0F9D1FF90191838083F301EFCFA6
:10187000F0930103E093000369CF4816590608F47A
:101880002C017D01D3019ACFCB010E94740A7C0107
:10189000009749F0AE01B8010E94560CC8010E94A1
:1018A000100B870153CF10E000E050CFFB01DC01AB
:1018B00002C001900D9241505040D8F70895FB01AD
:1018C000DC018D91019080190110D9F3990B0895D5
:1018D000FB01DC0101900D920020E1F70895F894DE
:0218E000FFCF38
:1018E2000D0C0B0A090807313233343536373839D3
:1018F2002A3023000002038000000000005001B0E3
:1019020000DD009D010E01EC0000010000000080DE
:101912000240020F02000000001007B000C004AF36
:10192200000D0A00707265737323746F6D616B65CD
:101932006F7264657200456E7465722075736572AC
:101942006E616D653A00456E7465722070617373E5
:10195200776F72643A0061757468656E7469636169
:1019620074696E6700310061757468656E746963CD
:101972006174656400456E7465722070726F64757F
:1019820063742069643A006F7264657220636F6DDC
:10199200706C65746564006F72646572206661695B
:1019A2006C6564006469646E74206D6174636800C0
:00000001FF
